{
  "contractName": "MultiSignatureWallet",
  "abi": [
    {
      "constant": true,
      "inputs": [
        {
          "name": "",
          "type": "uint256"
        }
      ],
      "name": "owners",
      "outputs": [
        {
          "name": "",
          "type": "address"
        }
      ],
      "payable": false,
      "stateMutability": "view",
      "type": "function",
      "signature": "0x025e7c27"
    },
    {
      "constant": true,
      "inputs": [
        {
          "name": "",
          "type": "address"
        }
      ],
      "name": "isOwner",
      "outputs": [
        {
          "name": "",
          "type": "bool"
        }
      ],
      "payable": false,
      "stateMutability": "view",
      "type": "function",
      "signature": "0x2f54bf6e"
    },
    {
      "constant": true,
      "inputs": [
        {
          "name": "",
          "type": "uint256"
        },
        {
          "name": "",
          "type": "address"
        }
      ],
      "name": "confirmations",
      "outputs": [
        {
          "name": "",
          "type": "bool"
        }
      ],
      "payable": false,
      "stateMutability": "view",
      "type": "function",
      "signature": "0x3411c81c"
    },
    {
      "constant": true,
      "inputs": [
        {
          "name": "",
          "type": "uint256"
        }
      ],
      "name": "transactions",
      "outputs": [
        {
          "name": "destination",
          "type": "address"
        },
        {
          "name": "value",
          "type": "uint256"
        },
        {
          "name": "data",
          "type": "bytes"
        },
        {
          "name": "executed",
          "type": "bool"
        }
      ],
      "payable": false,
      "stateMutability": "view",
      "type": "function",
      "signature": "0x9ace38c2"
    },
    {
      "constant": true,
      "inputs": [],
      "name": "transactionCount",
      "outputs": [
        {
          "name": "",
          "type": "uint256"
        }
      ],
      "payable": false,
      "stateMutability": "view",
      "type": "function",
      "signature": "0xb77bf600"
    },
    {
      "constant": true,
      "inputs": [],
      "name": "MAX_OWNER_COUNT",
      "outputs": [
        {
          "name": "",
          "type": "uint256"
        }
      ],
      "payable": false,
      "stateMutability": "view",
      "type": "function",
      "signature": "0xd74f8edd"
    },
    {
      "constant": true,
      "inputs": [],
      "name": "required",
      "outputs": [
        {
          "name": "",
          "type": "uint256"
        }
      ],
      "payable": false,
      "stateMutability": "view",
      "type": "function",
      "signature": "0xdc8452cd"
    },
    {
      "inputs": [
        {
          "name": "_owners",
          "type": "address[]"
        },
        {
          "name": "_required",
          "type": "uint256"
        }
      ],
      "payable": false,
      "stateMutability": "nonpayable",
      "type": "constructor",
      "signature": "constructor"
    },
    {
      "anonymous": false,
      "inputs": [
        {
          "indexed": true,
          "name": "sender",
          "type": "address"
        },
        {
          "indexed": true,
          "name": "transactionId",
          "type": "uint256"
        }
      ],
      "name": "Confirmation",
      "type": "event",
      "signature": "0x4a504a94899432a9846e1aa406dceb1bcfd538bb839071d49d1e5e23f5be30ef"
    },
    {
      "anonymous": false,
      "inputs": [
        {
          "indexed": true,
          "name": "sender",
          "type": "address"
        },
        {
          "indexed": true,
          "name": "transactionId",
          "type": "uint256"
        }
      ],
      "name": "Revocation",
      "type": "event",
      "signature": "0xf6a317157440607f36269043eb55f1287a5a19ba2216afeab88cd46cbcfb88e9"
    },
    {
      "anonymous": false,
      "inputs": [
        {
          "indexed": true,
          "name": "transactionId",
          "type": "uint256"
        }
      ],
      "name": "Submission",
      "type": "event",
      "signature": "0xc0ba8fe4b176c1714197d43b9cc6bcf797a4a7461c5fe8d0ef6e184ae7601e51"
    },
    {
      "anonymous": false,
      "inputs": [
        {
          "indexed": true,
          "name": "transactionId",
          "type": "uint256"
        }
      ],
      "name": "Execution",
      "type": "event",
      "signature": "0x33e13ecb54c3076d8e8bb8c2881800a4d972b792045ffae98fdf46df365fed75"
    },
    {
      "anonymous": false,
      "inputs": [
        {
          "indexed": true,
          "name": "transactionId",
          "type": "uint256"
        }
      ],
      "name": "ExecutionFailure",
      "type": "event",
      "signature": "0x526441bb6c1aba3c9a4a6ca1d6545da9c2333c8c48343ef398eb858d72b79236"
    },
    {
      "anonymous": false,
      "inputs": [
        {
          "indexed": true,
          "name": "owner",
          "type": "address"
        }
      ],
      "name": "Deposit",
      "type": "event",
      "signature": "0x8ce0bd46ec50cf39f0d0ea8686a686eb226af5796dcda4231b26fb84b5ef1234"
    },
    {
      "anonymous": false,
      "inputs": [
        {
          "indexed": true,
          "name": "owner",
          "type": "address"
        }
      ],
      "name": "OwnerAddition",
      "type": "event",
      "signature": "0xf39e6e1eb0edcf53c221607b54b00cd28f3196fed0a24994dc308b8f611b682d"
    },
    {
      "anonymous": false,
      "inputs": [
        {
          "indexed": true,
          "name": "owner",
          "type": "address"
        }
      ],
      "name": "OwnerRemoval",
      "type": "event",
      "signature": "0x8001553a916ef2f495d26a907cc54d96ed840d7bda71e73194bf5a9df7a76b90"
    },
    {
      "anonymous": false,
      "inputs": [
        {
          "indexed": false,
          "name": "required",
          "type": "uint256"
        }
      ],
      "name": "RequirementChange",
      "type": "event",
      "signature": "0xa3f1ee9126a074d9326c682f561767f710e927faa811f7a99829d49dc421797a"
    },
    {
      "constant": false,
      "inputs": [
        {
          "name": "destination",
          "type": "address"
        },
        {
          "name": "value",
          "type": "uint256"
        },
        {
          "name": "data",
          "type": "bytes"
        }
      ],
      "name": "submitTransaction",
      "outputs": [
        {
          "name": "transactionId",
          "type": "uint256"
        }
      ],
      "payable": false,
      "stateMutability": "nonpayable",
      "type": "function",
      "signature": "0xc6427474"
    },
    {
      "constant": false,
      "inputs": [
        {
          "name": "transactionId",
          "type": "uint256"
        }
      ],
      "name": "confirmTransaction",
      "outputs": [],
      "payable": false,
      "stateMutability": "nonpayable",
      "type": "function",
      "signature": "0xc01a8c84"
    },
    {
      "constant": true,
      "inputs": [
        {
          "name": "transactionId",
          "type": "uint256"
        }
      ],
      "name": "revokeConfirmation",
      "outputs": [],
      "payable": false,
      "stateMutability": "view",
      "type": "function",
      "signature": "0x20ea8d86"
    },
    {
      "constant": false,
      "inputs": [
        {
          "name": "transactionId",
          "type": "uint256"
        }
      ],
      "name": "executeTransaction",
      "outputs": [],
      "payable": true,
      "stateMutability": "payable",
      "type": "function",
      "signature": "0xee22610b"
    },
    {
      "constant": true,
      "inputs": [
        {
          "name": "transactionId",
          "type": "uint256"
        }
      ],
      "name": "isConfirmed",
      "outputs": [
        {
          "name": "",
          "type": "bool"
        }
      ],
      "payable": false,
      "stateMutability": "view",
      "type": "function",
      "signature": "0x784547a7"
    }
  ],
  "bytecode": "0x60806040523480156200001157600080fd5b506040516200116e3803806200116e833981018060405260408110156200003757600080fd5b8101908080516401000000008111156200005057600080fd5b828101905060208101848111156200006757600080fd5b81518560208202830111640100000000821117156200008557600080fd5b50509291906020018051906020019092919050505081518181811180620000ac5750600081145b80620000b85750600082145b15620000c357600080fd5b60008090505b84518110156200021157600260008683815181101515620000e657fe5b9060200190602002015173ffffffffffffffffffffffffffffffffffffffff1673ffffffffffffffffffffffffffffffffffffffff16815260200190815260200160002060009054906101000a900460ff1680620001885750600073ffffffffffffffffffffffffffffffffffffffff1685828151811015156200016657fe5b9060200190602002015173ffffffffffffffffffffffffffffffffffffffff16145b156200019357600080fd5b6001600260008784815181101515620001a857fe5b9060200190602002015173ffffffffffffffffffffffffffffffffffffffff1673ffffffffffffffffffffffffffffffffffffffff16815260200190815260200160002060006101000a81548160ff0219169083151502179055508080600101915050620000c9565b5083600390805190602001906200022a9291906200023c565b50826004819055505050505062000311565b828054828255906000526020600020908101928215620002b8579160200282015b82811115620002b75782518260006101000a81548173ffffffffffffffffffffffffffffffffffffffff021916908373ffffffffffffffffffffffffffffffffffffffff160217905550916020019190600101906200025d565b5b509050620002c79190620002cb565b5090565b6200030e91905b808211156200030a57600081816101000a81549073ffffffffffffffffffffffffffffffffffffffff021916905550600101620002d2565b5090565b90565b610e4d80620003216000396000f3fe6080604052600436106100ba576000357c0100000000000000000000000000000000000000000000000000000000900463ffffffff168063025e7c27146100bf57806320ea8d861461013a5780632f54bf6e146101755780633411c81c146101de578063784547a7146102515780639ace38c2146102a4578063b77bf6001461039d578063c01a8c84146103c8578063c642747414610403578063d74f8edd14610509578063dc8452cd14610534578063ee22610b1461055f575b600080fd5b3480156100cb57600080fd5b506100f8600480360360208110156100e257600080fd5b810190808035906020019092919050505061058d565b604051808273ffffffffffffffffffffffffffffffffffffffff1673ffffffffffffffffffffffffffffffffffffffff16815260200191505060405180910390f35b34801561014657600080fd5b506101736004803603602081101561015d57600080fd5b81019080803590602001909291905050506105cb565b005b34801561018157600080fd5b506101c46004803603602081101561019857600080fd5b81019080803573ffffffffffffffffffffffffffffffffffffffff169060200190929190505050610603565b604051808215151515815260200191505060405180910390f35b3480156101ea57600080fd5b506102376004803603604081101561020157600080fd5b8101908080359060200190929190803573ffffffffffffffffffffffffffffffffffffffff169060200190929190505050610623565b604051808215151515815260200191505060405180910390f35b34801561025d57600080fd5b5061028a6004803603602081101561027457600080fd5b8101908080359060200190929190505050610652565b604051808215151515815260200191505060405180910390f35b3480156102b057600080fd5b506102dd600480360360208110156102c757600080fd5b8101908080359060200190929190505050610739565b604051808573ffffffffffffffffffffffffffffffffffffffff1673ffffffffffffffffffffffffffffffffffffffff1681526020018481526020018060200183151515158152602001828103825284818151815260200191508051906020019080838360005b8381101561035f578082015181840152602081019050610344565b50505050905090810190601f16801561038c5780820380516001836020036101000a031916815260200191505b509550505050505060405180910390f35b3480156103a957600080fd5b506103b261082e565b6040518082815260200191505060405180910390f35b3480156103d457600080fd5b50610401600480360360208110156103eb57600080fd5b8101908080359060200190929190505050610834565b005b34801561040f57600080fd5b506104f36004803603606081101561042657600080fd5b81019080803573ffffffffffffffffffffffffffffffffffffffff169060200190929190803590602001909291908035906020019064010000000081111561046d57600080fd5b82018360208201111561047f57600080fd5b803590602001918460018302840111640100000000831117156104a157600080fd5b91908080601f016020809104026020016040519081016040528093929190818152602001838380828437600081840152601f19601f8201169050808301925050505050505091929192905050506109e1565b6040518082815260200191505060405180910390f35b34801561051557600080fd5b5061051e610a58565b6040518082815260200191505060405180910390f35b34801561054057600080fd5b50610549610a5d565b6040518082815260200191505060405180910390f35b61058b6004803603602081101561057557600080fd5b8101908080359060200190929190505050610a63565b005b60038181548110151561059c57fe5b906000526020600020016000915054906101000a900473ffffffffffffffffffffffffffffffffffffffff1681565b6000151560008083815260200190815260200160002060030160009054906101000a900460ff16151514151561060057600080fd5b50565b60026020528060005260406000206000915054906101000a900460ff1681565b60016020528160005260406000206020528060005260406000206000915091509054906101000a900460ff1681565b6000806000905060008090505b6003805490508110156107315760016000858152602001908152602001600020600060038381548110151561069057fe5b9060005260206000200160009054906101000a900473ffffffffffffffffffffffffffffffffffffffff1673ffffffffffffffffffffffffffffffffffffffff1673ffffffffffffffffffffffffffffffffffffffff16815260200190815260200160002060009054906101000a900460ff161561070f576001820191505b60045482141561072457600192505050610734565b808060010191505061065f565b50505b919050565b60006020528060005260406000206000915090508060000160009054906101000a900473ffffffffffffffffffffffffffffffffffffffff1690806001015490806002018054600181600116156101000203166002900480601f0160208091040260200160405190810160405280929190818152602001828054600181600116156101000203166002900480156108115780601f106107e657610100808354040283529160200191610811565b820191906000526020600020905b8154815290600101906020018083116107f457829003601f168201915b5050505050908060030160009054906101000a900460ff16905084565b60055481565b600260003373ffffffffffffffffffffffffffffffffffffffff1673ffffffffffffffffffffffffffffffffffffffff16815260200190815260200160002060009054906101000a900460ff16151561088c57600080fd5b600073ffffffffffffffffffffffffffffffffffffffff1660008083815260200190815260200160002060000160009054906101000a900473ffffffffffffffffffffffffffffffffffffffff1673ffffffffffffffffffffffffffffffffffffffff16141515156108fd57600080fd5b600015156001600083815260200190815260200160002060003373ffffffffffffffffffffffffffffffffffffffff1673ffffffffffffffffffffffffffffffffffffffff16815260200190815260200160002060009054906101000a900460ff16151514151561096d57600080fd5b600180600083815260200190815260200160002060003373ffffffffffffffffffffffffffffffffffffffff1673ffffffffffffffffffffffffffffffffffffffff16815260200190815260200160002060006101000a81548160ff0219169083151502179055506109de81610a63565b50565b6000600260003373ffffffffffffffffffffffffffffffffffffffff1673ffffffffffffffffffffffffffffffffffffffff16815260200190815260200160002060009054906101000a900460ff161515610a3b57600080fd5b610a46848484610c52565b9050610a5181610834565b9392505050565b600281565b60045481565b6000151560008083815260200190815260200160002060030160009054906101000a900460ff161515141515610a9857600080fd5b610aa181610652565b15610c4f576000806000838152602001908152602001600020905060018160030160006101000a81548160ff021916908315150217905550600060608260000160009054906101000a900473ffffffffffffffffffffffffffffffffffffffff1673ffffffffffffffffffffffffffffffffffffffff168360010154846002016040518082805460018160011615610100020316600290048015610b7c5780601f10610b5a576101008083540402835291820191610b7c565b820191906000526020600020905b815481529060010190602001808311610b68575b505091505060006040518083038185875af1925050503d8060008114610bbe576040519150601f19603f3d011682016040523d82523d6000602084013e610bc3565b606091505b50915091508115610c0057837f33e13ecb54c3076d8e8bb8c2881800a4d972b792045ffae98fdf46df365fed7560405160405180910390a2610c4b565b837f526441bb6c1aba3c9a4a6ca1d6545da9c2333c8c48343ef398eb858d72b7923660405160405180910390a260008360030160006101000a81548160ff0219169083151502179055505b5050505b50565b600060055490506080604051908101604052808573ffffffffffffffffffffffffffffffffffffffff1681526020018481526020018381526020016000151581525060008083815260200190815260200160002060008201518160000160006101000a81548173ffffffffffffffffffffffffffffffffffffffff021916908373ffffffffffffffffffffffffffffffffffffffff160217905550602082015181600101556040820151816002019080519060200190610d13929190610d7c565b5060608201518160030160006101000a81548160ff0219169083151502179055509050506001600560008282540192505081905550807fc0ba8fe4b176c1714197d43b9cc6bcf797a4a7461c5fe8d0ef6e184ae7601e5160405160405180910390a29392505050565b828054600181600116156101000203166002900490600052602060002090601f016020900481019282601f10610dbd57805160ff1916838001178555610deb565b82800160010185558215610deb579182015b82811115610dea578251825591602001919060010190610dcf565b5b509050610df89190610dfc565b5090565b610e1e91905b80821115610e1a576000816000905550600101610e02565b5090565b9056fea165627a7a723058206b5ec3d9f8371a739dd04442716c8b8e69e8b8dd2945658cf53e05e25fe2d1800029",
  "source": "pragma solidity ^0.5.0;\n\ncontract MultiSignatureWallet {\n\n\n\n  uint constant public MAX_OWNER_COUNT = 2;\n\n  event Confirmation(address indexed sender, uint indexed transactionId);\n  event Revocation(address indexed sender, uint indexed transactionId);\n  event Submission(uint indexed transactionId);\n  event Execution(uint indexed transactionId);\n  event ExecutionFailure(uint indexed transactionId);\n  event Deposit(address indexed owner);\n  event OwnerAddition(address indexed owner);\n  event OwnerRemoval(address indexed owner);\n  event RequirementChange(uint required);\n\n   mapping (uint => Transaction) public transactions;\n   mapping (uint => mapping(address => bool)) public confirmations;\n   mapping (address => bool) public isOwner;\n   address[] public owners;\n   uint public required;\n   uint public transactionCount;\n\n      struct Transaction {\n        address destination;\n        uint value;\n        bytes data;\n        bool executed;\n      }\n\n\n\n  modifier onlyWallet() {\n            require(msg.sender == address(this));\n            _;\n        }\n\n  modifier ownerExists(address owner) {\n          require(isOwner[owner]);\n          _;\n      }\n\nmodifier ownerDoesNotExist(address owner) {\n           require(!isOwner[owner]);\n           _;\n       }\n\n  modifier confirmed(uint transactionId, address owner) {\n             require(confirmations[transactionId][owner]);\n             _;\n         }\n\n  modifier notConfirmed(uint transactionId, address owner) {\n               require(!confirmations[transactionId][owner]);\n               _;\n           }\n\n  modifier notExecuted(uint transactionId) {\n                 require(!transactions[transactionId].executed);\n                 _;\n             }\n\n  modifier notNull(address _address) {\n                   require(_address != address(0));\n                   _;\n               }\n\n  modifier  validRequirement( uint ownerCount, uint _required) {\n      if (  _required > ownerCount\n          ||  _required == 0\n          ||  ownerCount   == 0)\n          revert();\n          _;\n        }\n\n\n\n    /*\n     * Public functions\n     */\n    /// @dev Contract constructor sets initial owners and required number of confirmations.\n    /// @param _owners List of initial owners.\n    /// @param _required Number of required confirmations.\n    constructor(address[] memory _owners, uint _required)\n          public\n          validRequirement(_owners.length, _required)\n      {\n          for (uint i=0; i<_owners.length; i++) {\n            if (isOwner[_owners[i]] || _owners[i] == address (0))\n              revert();\n            isOwner[_owners[i]] = true;\n          }\n          owners = _owners;\n          required = _required;\n      }\n\n    /// @dev Allows an owner to submit and confirm a transaction.\n    /// @param destination Transaction target address.\n    /// @param value Transaction ether value.\n    /// @param data Transaction data payload.\n    /// @return Returns transaction ID.\n    function submitTransaction(address destination, uint value, bytes\n    memory data)\n    public\n    returns (uint transactionId)\n  {\n    require(isOwner[msg.sender]);\n    transactionId = addTransaction(destination, value, data);\n    confirmTransaction(transactionId);\n  }\n\n    /// @dev Allows an owner to confirm a transaction.\n    /// @param transactionId Transaction ID.\n    function confirmTransaction(uint transactionId)\n    public\n  {\n     require(isOwner[msg.sender]);\n     require(transactions[transactionId].destination != address (0));\n     require(confirmations[transactionId][msg.sender] == false);\n     confirmations[transactionId][msg.sender] = true;\n     executeTransaction(transactionId);\n  }\n\n    /// @dev Allows an owner to revoke a confirmation for a transaction.\n    /// @param transactionId Transaction ID.\n    function revokeConfirmation(uint transactionId)\n    public view\n {\n    require(transactions[transactionId].executed == false);\n }\n\n    /// @dev Allows anyone to execute a confirmed transaction.\n    /// @param transactionId Transaction ID.\n    function executeTransaction(uint transactionId)\n    public payable\n{\n    require(transactions[transactionId].executed == false);\n    if (isConfirmed(transactionId)) {\n      Transaction storage t  = transactions[transactionId];\n      t.executed = true;\n      (bool success, bytes memory data) =\n      t.destination.call.value(t.value)(t.data);\n      if (success)\n          emit Execution(transactionId);\n      else {\n          emit ExecutionFailure(transactionId);\n          t.executed = false;\n      }\n}\n}\n\t\t/*\n\t\t * (Possible) Helper Functions\n\t\t */\n    /// @dev Returns the confirmation status of a transaction.\n    /// @param transactionId Transaction ID.\n    /// @return Confirmation status.\n    function isConfirmed(uint transactionId)\n    public\n    view\n    returns (bool)\n  {\n    uint count = 0;\n     for(uint i=0; i<owners.length; i++) {\n        if (confirmations[transactionId][owners[i]])\n            count += 1;\n        if (count == required)\n            return true;\n  }\n}\n    /// @dev Adds a new transaction to the transaction mapping, if transaction does not exist yet.\n    /// @param destination Transaction target address.\n    /// @param value Transaction ether value.\n    /// @param data Transaction data payload.\n    /// @return Returns transaction ID.\n    function addTransaction(address destination, uint value, bytes memory data)\n    internal\n    returns (uint transactionId)\n  {\n    transactionId = transactionCount;\n    transactions[transactionId] = Transaction({\n      destination: destination,\n      value: value,\n      data: data,\n      executed: false\n    });\n    transactionCount +=1;\n    emit Submission(transactionId);\n  }\n}\n",
  "sourcePath": "/Users/raxxcoin/multisig-wallet-exercise/contracts/MultiSignatureWallet.sol",
  "compiler": {
    "name": "solc",
    "version": "0.5.0+commit.1d4f565a.Emscripten.clang"
  },
  "schemaVersion": "3.0.1",
  "updatedAt": "2019-01-28T03:21:19.779Z",
  "devdoc": {
    "methods": {
      "confirmTransaction(uint256)": {
        "details": "Allows an owner to confirm a transaction.",
        "params": {
          "transactionId": "Transaction ID."
        }
      },
      "constructor": {
        "details": "Contract constructor sets initial owners and required number of confirmations.",
        "params": {
          "_owners": "List of initial owners.",
          "_required": "Number of required confirmations."
        }
      },
      "executeTransaction(uint256)": {
        "details": "Allows anyone to execute a confirmed transaction.",
        "params": {
          "transactionId": "Transaction ID."
        }
      },
      "isConfirmed(uint256)": {
        "details": "Returns the confirmation status of a transaction.",
        "params": {
          "transactionId": "Transaction ID."
        },
        "return": "Confirmation status."
      },
      "revokeConfirmation(uint256)": {
        "details": "Allows an owner to revoke a confirmation for a transaction.",
        "params": {
          "transactionId": "Transaction ID."
        }
      },
      "submitTransaction(address,uint256,bytes)": {
        "details": "Allows an owner to submit and confirm a transaction.",
        "params": {
          "data": "Transaction data payload.",
          "destination": "Transaction target address.",
          "value": "Transaction ether value."
        },
        "return": "Returns transaction ID."
      }
    }
  },
  "userdoc": {
    "methods": {}
  }
}