{
  "contractName": "SimpleStorage",
  "abi": [
    {
      "constant": true,
      "inputs": [],
      "name": "storedData",
      "outputs": [
        {
          "name": "",
          "type": "uint256"
        }
      ],
      "payable": false,
      "stateMutability": "view",
      "type": "function",
      "signature": "0x2a1afcd9"
    },
    {
      "constant": true,
      "inputs": [],
      "name": "caller",
      "outputs": [
        {
          "name": "",
          "type": "address"
        }
      ],
      "payable": false,
      "stateMutability": "view",
      "type": "function",
      "signature": "0xfc9c8d39"
    },
    {
      "constant": false,
      "inputs": [
        {
          "name": "x",
          "type": "uint256"
        }
      ],
      "name": "set",
      "outputs": [],
      "payable": false,
      "stateMutability": "nonpayable",
      "type": "function",
      "signature": "0x60fe47b1"
    }
  ],
  "bytecode": "0x608060405234801561001057600080fd5b506101bc806100206000396000f3fe608060405260043610610057576000357c0100000000000000000000000000000000000000000000000000000000900463ffffffff1680632a1afcd91461005c57806360fe47b114610087578063fc9c8d39146100c2575b600080fd5b34801561006857600080fd5b50610071610119565b6040518082815260200191505060405180910390f35b34801561009357600080fd5b506100c0600480360360208110156100aa57600080fd5b810190808035906020019092919050505061011f565b005b3480156100ce57600080fd5b506100d761016a565b604051808273ffffffffffffffffffffffffffffffffffffffff1673ffffffffffffffffffffffffffffffffffffffff16815260200191505060405180910390f35b60005481565b33600160006101000a81548173ffffffffffffffffffffffffffffffffffffffff021916908373ffffffffffffffffffffffffffffffffffffffff1602179055508060008190555050565b600160009054906101000a900473ffffffffffffffffffffffffffffffffffffffff168156fea165627a7a7230582064e56c12e1aa053ff8d376df8ecbda453c0277fadf2028d80761d11c30de52fd0029",
  "source": "pragma solidity ^0.5.0;\n\ncontract SimpleStorage {\n    uint public storedData;\n\n    address public caller;\n\n    function set(uint x) public {\n        caller = msg.sender;\n        storedData = x;\n    }\n}\n",
  "sourcePath": "/Users/raxxcoin/Documents/multisig-wallet-exercise/contracts/SimpleStorage.sol",
  "compiler": {
    "name": "solc",
    "version": "0.5.0+commit.1d4f565a.Emscripten.clang"
  },
  "schemaVersion": "3.0.1",
  "updatedAt": "2019-01-28T03:51:06.262Z",
  "devdoc": {
    "methods": {}
  },
  "userdoc": {
    "methods": {}
  }
}